{
  "contractName": "Market",
  "abi": [
    {
      "inputs": [],
      "payable": false,
      "stateMutability": "nonpayable",
      "type": "constructor"
    },
    {
      "anonymous": false,
      "inputs": [
        {
          "indexed": false,
          "internalType": "address",
          "name": "trader",
          "type": "address"
        }
      ],
      "name": "InitializedTrader",
      "type": "event"
    },
    {
      "anonymous": false,
      "inputs": [
        {
          "components": [
            {
              "internalType": "string",
              "name": "title",
              "type": "string"
            },
            {
              "internalType": "uint256",
              "name": "quotasReductionGoal",
              "type": "uint256"
            },
            {
              "internalType": "uint256",
              "name": "timestamp",
              "type": "uint256"
            },
            {
              "internalType": "enum Market.CleanInitiativeState",
              "name": "state",
              "type": "uint8"
            }
          ],
          "indexed": false,
          "internalType": "struct Market.CleanInitiative",
          "name": "newItem",
          "type": "tuple"
        }
      ],
      "name": "NewCleanInitiative",
      "type": "event"
    },
    {
      "anonymous": false,
      "inputs": [
        {
          "indexed": false,
          "internalType": "address",
          "name": "from",
          "type": "address"
        },
        {
          "indexed": false,
          "internalType": "address",
          "name": "to",
          "type": "address"
        },
        {
          "indexed": false,
          "internalType": "uint256",
          "name": "amount",
          "type": "uint256"
        }
      ],
      "name": "Sent",
      "type": "event"
    },
    {
      "anonymous": false,
      "inputs": [
        {
          "indexed": false,
          "internalType": "uint256",
          "name": "amount",
          "type": "uint256"
        }
      ],
      "name": "WasteQuotaAssigned",
      "type": "event"
    },
    {
      "anonymous": false,
      "inputs": [
        {
          "indexed": false,
          "internalType": "uint256",
          "name": "amount",
          "type": "uint256"
        }
      ],
      "name": "WasteQuotaReduced",
      "type": "event"
    },
    {
      "constant": true,
      "inputs": [],
      "name": "ACHIEVE_GOAL_REWARD",
      "outputs": [
        {
          "internalType": "uint256",
          "name": "",
          "type": "uint256"
        }
      ],
      "payable": false,
      "stateMutability": "view",
      "type": "function"
    },
    {
      "constant": true,
      "inputs": [],
      "name": "INITIAL_SUPPLY",
      "outputs": [
        {
          "internalType": "uint256",
          "name": "",
          "type": "uint256"
        }
      ],
      "payable": false,
      "stateMutability": "view",
      "type": "function"
    },
    {
      "constant": true,
      "inputs": [],
      "name": "OFFICIAL_WASTE_GENERATION_QUOTA",
      "outputs": [
        {
          "internalType": "uint256",
          "name": "",
          "type": "uint256"
        }
      ],
      "payable": false,
      "stateMutability": "view",
      "type": "function"
    },
    {
      "constant": true,
      "inputs": [
        {
          "internalType": "address",
          "name": "",
          "type": "address"
        }
      ],
      "name": "balances",
      "outputs": [
        {
          "internalType": "uint256",
          "name": "",
          "type": "uint256"
        }
      ],
      "payable": false,
      "stateMutability": "view",
      "type": "function"
    },
    {
      "constant": true,
      "inputs": [],
      "name": "buyOrdersBook",
      "outputs": [
        {
          "internalType": "uint256",
          "name": "size",
          "type": "uint256"
        }
      ],
      "payable": false,
      "stateMutability": "view",
      "type": "function"
    },
    {
      "constant": true,
      "inputs": [],
      "name": "municipal_credit_price",
      "outputs": [
        {
          "internalType": "uint256",
          "name": "",
          "type": "uint256"
        }
      ],
      "payable": false,
      "stateMutability": "view",
      "type": "function"
    },
    {
      "constant": true,
      "inputs": [],
      "name": "owner",
      "outputs": [
        {
          "internalType": "address",
          "name": "",
          "type": "address"
        }
      ],
      "payable": false,
      "stateMutability": "view",
      "type": "function"
    },
    {
      "constant": true,
      "inputs": [],
      "name": "sellOrdersBook",
      "outputs": [
        {
          "internalType": "uint256",
          "name": "size",
          "type": "uint256"
        }
      ],
      "payable": false,
      "stateMutability": "view",
      "type": "function"
    },
    {
      "constant": false,
      "inputs": [
        {
          "internalType": "address",
          "name": "receiver",
          "type": "address"
        },
        {
          "internalType": "uint256",
          "name": "amount",
          "type": "uint256"
        }
      ],
      "name": "mint",
      "outputs": [],
      "payable": false,
      "stateMutability": "nonpayable",
      "type": "function"
    },
    {
      "constant": false,
      "inputs": [
        {
          "internalType": "address",
          "name": "receiver",
          "type": "address"
        },
        {
          "internalType": "uint256",
          "name": "amount",
          "type": "uint256"
        }
      ],
      "name": "send",
      "outputs": [],
      "payable": false,
      "stateMutability": "nonpayable",
      "type": "function"
    },
    {
      "constant": false,
      "inputs": [],
      "name": "initializeTrader",
      "outputs": [],
      "payable": false,
      "stateMutability": "nonpayable",
      "type": "function"
    },
    {
      "constant": false,
      "inputs": [
        {
          "internalType": "uint256",
          "name": "amount",
          "type": "uint256"
        }
      ],
      "name": "reduceWasteQuotes",
      "outputs": [
        {
          "internalType": "uint256",
          "name": "",
          "type": "uint256"
        }
      ],
      "payable": false,
      "stateMutability": "nonpayable",
      "type": "function"
    },
    {
      "constant": false,
      "inputs": [
        {
          "internalType": "uint256",
          "name": "amount",
          "type": "uint256"
        }
      ],
      "name": "setWasteQuotes",
      "outputs": [
        {
          "internalType": "uint256",
          "name": "",
          "type": "uint256"
        }
      ],
      "payable": false,
      "stateMutability": "nonpayable",
      "type": "function"
    },
    {
      "constant": false,
      "inputs": [
        {
          "internalType": "string",
          "name": "title",
          "type": "string"
        },
        {
          "internalType": "uint256",
          "name": "goal",
          "type": "uint256"
        },
        {
          "internalType": "uint256",
          "name": "creation",
          "type": "uint256"
        }
      ],
      "name": "newCleanInitiative",
      "outputs": [
        {
          "components": [
            {
              "internalType": "string",
              "name": "title",
              "type": "string"
            },
            {
              "internalType": "uint256",
              "name": "quotasReductionGoal",
              "type": "uint256"
            },
            {
              "internalType": "uint256",
              "name": "timestamp",
              "type": "uint256"
            },
            {
              "internalType": "enum Market.CleanInitiativeState",
              "name": "state",
              "type": "uint8"
            }
          ],
          "internalType": "struct Market.CleanInitiative",
          "name": "",
          "type": "tuple"
        }
      ],
      "payable": false,
      "stateMutability": "nonpayable",
      "type": "function"
    },
    {
      "constant": true,
      "inputs": [],
      "name": "getCleanInitiatives",
      "outputs": [
        {
          "components": [
            {
              "internalType": "string",
              "name": "title",
              "type": "string"
            },
            {
              "internalType": "uint256",
              "name": "quotasReductionGoal",
              "type": "uint256"
            },
            {
              "internalType": "uint256",
              "name": "timestamp",
              "type": "uint256"
            },
            {
              "internalType": "enum Market.CleanInitiativeState",
              "name": "state",
              "type": "uint8"
            }
          ],
          "internalType": "struct Market.CleanInitiative[]",
          "name": "",
          "type": "tuple[]"
        }
      ],
      "payable": false,
      "stateMutability": "view",
      "type": "function"
    },
    {
      "constant": false,
      "inputs": [],
      "name": "closeEvaluationPeriod",
      "outputs": [],
      "payable": false,
      "stateMutability": "nonpayable",
      "type": "function"
    },
    {
      "constant": true,
      "inputs": [],
      "name": "getOrderBook",
      "outputs": [
        {
          "components": [
            {
              "internalType": "address",
              "name": "owner",
              "type": "address"
            },
            {
              "internalType": "uint256",
              "name": "ID",
              "type": "uint256"
            },
            {
              "internalType": "uint256",
              "name": "amount",
              "type": "uint256"
            },
            {
              "internalType": "uint256",
              "name": "price",
              "type": "uint256"
            },
            {
              "internalType": "bool",
              "name": "isASell",
              "type": "bool"
            }
          ],
          "internalType": "struct Market.Order[]",
          "name": "",
          "type": "tuple[]"
        }
      ],
      "payable": false,
      "stateMutability": "view",
      "type": "function"
    },
    {
      "constant": false,
      "inputs": [
        {
          "internalType": "uint256",
          "name": "amount",
          "type": "uint256"
        },
        {
          "internalType": "uint256",
          "name": "price",
          "type": "uint256"
        }
      ],
      "name": "addBuyOrder",
      "outputs": [
        {
          "internalType": "uint256",
          "name": "",
          "type": "uint256"
        }
      ],
      "payable": false,
      "stateMutability": "nonpayable",
      "type": "function"
    },
    {
      "constant": false,
      "inputs": [
        {
          "internalType": "uint256",
          "name": "amount",
          "type": "uint256"
        },
        {
          "internalType": "uint256",
          "name": "price",
          "type": "uint256"
        }
      ],
      "name": "addSellOrder",
      "outputs": [
        {
          "internalType": "uint256",
          "name": "",
          "type": "uint256"
        }
      ],
      "payable": false,
      "stateMutability": "nonpayable",
      "type": "function"
    },
    {
      "constant": false,
      "inputs": [
        {
          "components": [
            {
              "internalType": "address",
              "name": "owner",
              "type": "address"
            },
            {
              "internalType": "uint256",
              "name": "ID",
              "type": "uint256"
            },
            {
              "internalType": "uint256",
              "name": "amount",
              "type": "uint256"
            },
            {
              "internalType": "uint256",
              "name": "price",
              "type": "uint256"
            },
            {
              "internalType": "bool",
              "name": "isASell",
              "type": "bool"
            }
          ],
          "internalType": "struct Market.Order",
          "name": "order",
          "type": "tuple"
        }
      ],
      "name": "process",
      "outputs": [
        {
          "components": [
            {
              "internalType": "uint256",
              "name": "takerOrderID",
              "type": "uint256"
            },
            {
              "internalType": "uint256",
              "name": "makerOrderID",
              "type": "uint256"
            },
            {
              "internalType": "uint256",
              "name": "amount",
              "type": "uint256"
            },
            {
              "internalType": "uint256",
              "name": "price",
              "type": "uint256"
            }
          ],
          "internalType": "struct Market.Trade[]",
          "name": "",
          "type": "tuple[]"
        }
      ],
      "payable": false,
      "stateMutability": "nonpayable",
      "type": "function"
    },
    {
      "constant": false,
      "inputs": [
        {
          "components": [
            {
              "internalType": "address",
              "name": "owner",
              "type": "address"
            },
            {
              "internalType": "uint256",
              "name": "ID",
              "type": "uint256"
            },
            {
              "internalType": "uint256",
              "name": "amount",
              "type": "uint256"
            },
            {
              "internalType": "uint256",
              "name": "price",
              "type": "uint256"
            },
            {
              "internalType": "bool",
              "name": "isASell",
              "type": "bool"
            }
          ],
          "internalType": "struct Market.Order",
          "name": "order",
          "type": "tuple"
        }
      ],
      "name": "processBuy",
      "outputs": [
        {
          "components": [
            {
              "internalType": "uint256",
              "name": "takerOrderID",
              "type": "uint256"
            },
            {
              "internalType": "uint256",
              "name": "makerOrderID",
              "type": "uint256"
            },
            {
              "internalType": "uint256",
              "name": "amount",
              "type": "uint256"
            },
            {
              "internalType": "uint256",
              "name": "price",
              "type": "uint256"
            }
          ],
          "internalType": "struct Market.Trade[]",
          "name": "",
          "type": "tuple[]"
        }
      ],
      "payable": false,
      "stateMutability": "nonpayable",
      "type": "function"
    },
    {
      "constant": true,
      "inputs": [],
      "name": "myBalance",
      "outputs": [
        {
          "internalType": "uint256",
          "name": "",
          "type": "uint256"
        },
        {
          "internalType": "uint256",
          "name": "",
          "type": "uint256"
        },
        {
          "internalType": "uint256",
          "name": "",
          "type": "uint256"
        },
        {
          "internalType": "uint256",
          "name": "",
          "type": "uint256"
        }
      ],
      "payable": false,
      "stateMutability": "view",
      "type": "function"
    }
  ],
  "bytecode": "0x60806040526103e860005560286001553480156200001c57600080fd5b5033600560006101000a81548173ffffffffffffffffffffffffffffffffffffffff021916908373ffffffffffffffffffffffffffffffffffffffff16021790555062000075336402540be4006200007b60201b60201c565b62000314565b600560009054906101000a900473ffffffffffffffffffffffffffffffffffffffff1673ffffffffffffffffffffffffffffffffffffffff163373ffffffffffffffffffffffffffffffffffffffff1614156200021157600560009054906101000a900473ffffffffffffffffffffffffffffffffffffffff1673ffffffffffffffffffffffffffffffffffffffff163373ffffffffffffffffffffffffffffffffffffffff161462000165576040517f08c379a00000000000000000000000000000000000000000000000000000000081526004016200015c90620002bf565b60405180910390fd5b789f4f2726179a224501d762422c946590d910000000000000008110620001c3576040517f08c379a0000000000000000000000000000000000000000000000000000000008152600401620001ba90620002e1565b60405180910390fd5b80600760008473ffffffffffffffffffffffffffffffffffffffff1673ffffffffffffffffffffffffffffffffffffffff168152602001908152602001600020600082825401925050819055505b5050565b60006200022460258362000303565b91507f496e76616c6964207265717565737420666f72206e657720477265656e20437260008301527f65646974730000000000000000000000000000000000000000000000000000006020830152604082019050919050565b60006200028c600c8362000303565b91507f56616c756520746f206c6f7700000000000000000000000000000000000000006000830152602082019050919050565b60006020820190508181036000830152620002da8162000215565b9050919050565b60006020820190508181036000830152620002fc816200027d565b9050919050565b600082825260208201905092915050565b612c6480620003246000396000f3fe608060405234801561001057600080fd5b50600436106101425760003560e01c80638ceaafae116100b8578063b248c4ef1161007c578063b248c4ef1461038f578063c9116b69146103ad578063ce58f063146103ce578063d0679d34146103fe578063f49984461461041a578063fcc998521461042457610142565b80638ceaafae146102fb5780638da5cb5b146103195780638fe5e4e5146103375780639049681c14610355578063a41ce2311461038557610142565b80633fe4392b1161010a5780633fe4392b1461020157806340c10f191461023157806343943b611461024d5780634a45fa0c1461026b5780634b95a9321461029b5780637299cb11146102cb57610142565b806317f6460f1461014757806327e235e3146101655780632e31543a146101955780632ff2e9dc146101b35780633acde419146101d1575b600080fd5b61014f610442565b60405161015c919061293e565b60405180910390f35b61017f600480360361017a91908101906120c6565b610448565b60405161018c919061293e565b60405180910390f35b61019d610460565b6040516101aa9190612816565b60405180910390f35b6101bb61064c565b6040516101c8919061293e565b60405180910390f35b6101eb60048036036101e691908101906121e4565b610655565b6040516101f8919061293e565b60405180910390f35b61021b600480360361021691908101906121bb565b6106e1565b604051610228919061293e565b60405180910390f35b61024b600480360361024691908101906120ef565b6107d7565b005b61025561096a565b604051610262919061293e565b60405180910390f35b6102856004803603610280919081019061212b565b610976565b604051610292919061291c565b60405180910390f35b6102b560048036036102b091908101906121bb565b610b94565b6040516102c2919061293e565b60405180910390f35b6102e560048036036102e09190810190612192565b610cda565b6040516102f2919061285a565b60405180910390f35b610303610d95565b604051610310919061293e565b60405180910390f35b610321610d9b565b60405161032e91906127c4565b60405180910390f35b61033f610dc1565b60405161034c919061293e565b60405180910390f35b61036f600480360361036a91908101906121e4565b610dc7565b60405161037c919061293e565b60405180910390f35b61038d610e53565b005b610397610ecf565b6040516103a49190612838565b60405180910390f35b6103b56110fb565b6040516103c59493929190612959565b60405180910390f35b6103e860048036036103e39190810190612192565b6111a2565b6040516103f5919061285a565b60405180910390f35b610418600480360361041391908101906120ef565b611377565b005b610422611529565b005b61042c611631565b604051610439919061293e565b60405180910390f35b60005481565b60076020528060005260406000206000915090505481565b6060600060026000600560009054906101000a900473ffffffffffffffffffffffffffffffffffffffff1673ffffffffffffffffffffffffffffffffffffffff1673ffffffffffffffffffffffffffffffffffffffff16815260200190815260200160002090506060816001015460405190808252806020026020018201604052801561050757816020015b6104f4611dc9565b8152602001906001900390816104ec5790505b50905060008090505b826001015481101561064357826000016000828152602001908152602001600020604051806080016040529081600082018054600181600116156101000203166002900480601f0160208091040260200160405190810160405280929190818152602001828054600181600116156101000203166002900480156105d55780601f106105aa576101008083540402835291602001916105d5565b820191906000526020600020905b8154815290600101906020018083116105b857829003601f168201915b5050505050815260200160018201548152602001600282015481526020016003820160009054906101000a900460ff16600281111561061057fe5b600281111561061b57fe5b8152505082828151811061062b57fe5b60200260200101819052508080600101915050610510565b50809250505090565b6402540be40081565b6000804360405160200161066991906127a9565b6040516020818303038152906040528051906020012060001c905061068c611dfc565b6040518060a001604052803373ffffffffffffffffffffffffffffffffffffffff1681526020018381526020018681526020018581526020016001151581525090506106d78161163d565b9250505092915050565b6000808211610725576040517f08c379a000000000000000000000000000000000000000000000000000000000815260040161071c906128dc565b60405180910390fd5b600060026000600560009054906101000a900473ffffffffffffffffffffffffffffffffffffffff1673ffffffffffffffffffffffffffffffffffffffff1673ffffffffffffffffffffffffffffffffffffffff16815260200190815260200160002090508281600301819055507fcc5afcad2a1a956e74cf297cd319a374ed007abe665166c846f1524ed6358cac836040516107c2919061293e565b60405180910390a18060030154915050919050565b600560009054906101000a900473ffffffffffffffffffffffffffffffffffffffff1673ffffffffffffffffffffffffffffffffffffffff163373ffffffffffffffffffffffffffffffffffffffff16141561096657600560009054906101000a900473ffffffffffffffffffffffffffffffffffffffff1673ffffffffffffffffffffffffffffffffffffffff163373ffffffffffffffffffffffffffffffffffffffff16146108bd576040517f08c379a00000000000000000000000000000000000000000000000000000000081526004016108b49061289c565b60405180910390fd5b789f4f2726179a224501d762422c946590d910000000000000008110610918576040517f08c379a000000000000000000000000000000000000000000000000000000000815260040161090f906128fc565b60405180910390fd5b80600760008473ffffffffffffffffffffffffffffffffffffffff1673ffffffffffffffffffffffffffffffffffffffff168152602001908152602001600020600082825401925050819055505b5050565b600a8060010154905081565b61097e611e43565b610986611e43565b6040518060800160405280868152602001858152602001848152602001600060028111156109b057fe5b8152509050600060026000600560009054906101000a900473ffffffffffffffffffffffffffffffffffffffff1673ffffffffffffffffffffffffffffffffffffffff1673ffffffffffffffffffffffffffffffffffffffff1681526020019081526020016000209050600081600101541415610ab357818160000160008081526020019081526020016000206000820151816000019080519060200190610a59929190611e76565b50602082015181600101556040820151816002015560608201518160030160006101000a81548160ff02191690836002811115610a9257fe5b02179055509050508060010160008154809291906001019190505550610b3f565b81816000016000836001015481526020019081526020016000206000820151816000019080519060200190610ae9929190611e76565b50602082015181600101556040820151816002015560608201518160030160006101000a81548160ff02191690836002811115610b2257fe5b021790555090505080600101600081548092919060010191905055505b8481600201600082825401925050819055507f760f813a2a4bb15b6773ff80c7c91bb55ebb3365a9ec4390d5c7fafa40f4ad2682604051610b80919061291c565b60405180910390a181925050509392505050565b60008060026000600560009054906101000a900473ffffffffffffffffffffffffffffffffffffffff1673ffffffffffffffffffffffffffffffffffffffff1673ffffffffffffffffffffffffffffffffffffffff168152602001908152602001600020905060008311610c3d576040517f08c379a0000000000000000000000000000000000000000000000000000000008152600401610c34906128dc565b60405180910390fd5b6000816003015411610c84576040517f08c379a0000000000000000000000000000000000000000000000000000000008152600401610c7b9061287c565b60405180910390fd5b8281600301600082825403925050819055507f58a4a6424913197f5c356577698db2344a9a62f6b6027ae9f06ecef13fbfe0e383604051610cc5919061293e565b60405180910390a18060030154915050919050565b606080826080015115610cf757610cf0836117f8565b9050610d03565b610d00836111a2565b90505b6000809050600060045490505b825160045401811015610d7c57828281518110610d2957fe5b602002602001015160036000838152602001908152602001600020600082015181600001556020820151816001015560408201518160020155606082015181600301559050508080600101915050610d10565b5081516004600082825401925050819055505050919050565b60015481565b600560009054906101000a900473ffffffffffffffffffffffffffffffffffffffff1681565b60065481565b60008043604051602001610ddb91906127a9565b6040516020818303038152906040528051906020012060001c9050610dfe611dfc565b6040518060a001604052803373ffffffffffffffffffffffffffffffffffffffff168152602001838152602001868152602001858152602001600015158152509050610e49816119f9565b9250505092915050565b600060026000600560009054906101000a900473ffffffffffffffffffffffffffffffffffffffff1673ffffffffffffffffffffffffffffffffffffffff1673ffffffffffffffffffffffffffffffffffffffff1681526020019081526020016000209050610ec181611bb4565b600154816003018190555050565b606080600a6001015460086001015401604051908082528060200260200182016040528015610f1857816020015b610f05611ef6565b815260200190600190039081610efd5790505b509050600080905060006008600101549050600091505b8082101561100b57600860000160008381526020019081526020016000206040518060a00160405290816000820160009054906101000a900473ffffffffffffffffffffffffffffffffffffffff1673ffffffffffffffffffffffffffffffffffffffff1673ffffffffffffffffffffffffffffffffffffffff1681526020016001820154815260200160028201548152602001600382015481526020016004820160009054906101000a900460ff161515151581525050838381518110610ff357fe5b60200260200101819052508180600101925050610f2f565b600a60010154810190505b808210156110f257600860000160008381526020019081526020016000206040518060a00160405290816000820160009054906101000a900473ffffffffffffffffffffffffffffffffffffffff1673ffffffffffffffffffffffffffffffffffffffff1673ffffffffffffffffffffffffffffffffffffffff1681526020016001820154815260200160028201548152602001600382015481526020016004820160009054906101000a900460ff1615151515815250508383815181106110da57fe5b60200260200101819052508180600101925050611016565b82935050505090565b60008060008060003073ffffffffffffffffffffffffffffffffffffffff16319050600060026000600560009054906101000a900473ffffffffffffffffffffffffffffffffffffffff1673ffffffffffffffffffffffffffffffffffffffff1673ffffffffffffffffffffffffffffffffffffffff1681526020019081526020016000209050818160010154826002015483600301549550955095509550505090919293565b606080600060086001015490506000811415806111df57508360600151600860000160006001840381526020019081526020016000206003015411155b156113625760006001820390505b600081106113605760006008600001600083815260200190815260200160002090508560600151816003015411156112255750611360565b85604001518160020154106112c55761123c611f3d565b604051806080016040528088602001518152602001836001015481526020018860400151815260200183600301548152509050808560018751038151811061128057fe5b6020026020010181905250866040015182600201600082825403925050819055506000826002015414156112b8576112b783611cbf565b5b8495505050505050611372565b856040015181600201541015611350576112dd611f3d565b604051806080016040528088602001518152602001836001015481526020018860400151815260200183600301548152509050808560018751038151811061132157fe5b6020026020010181905250816002015487604001818151039150818152505061134983611cbf565b5050611352565b505b8080600190039150506111ed565b505b61136b846119f9565b5081925050505b919050565b600560009054906101000a900473ffffffffffffffffffffffffffffffffffffffff1673ffffffffffffffffffffffffffffffffffffffff163373ffffffffffffffffffffffffffffffffffffffff16141561152557600760003373ffffffffffffffffffffffffffffffffffffffff1673ffffffffffffffffffffffffffffffffffffffff1681526020019081526020016000205481111561144f576040517f08c379a0000000000000000000000000000000000000000000000000000000008152600401611446906128bc565b60405180910390fd5b80600760003373ffffffffffffffffffffffffffffffffffffffff1673ffffffffffffffffffffffffffffffffffffffff1681526020019081526020016000206000828254039250508190555080600760008473ffffffffffffffffffffffffffffffffffffffff1673ffffffffffffffffffffffffffffffffffffffff168152602001908152602001600020600082825401925050819055507f3990db2d31862302a685e8086b5755072a6e2b5b780af1ee81ece35ee3cd334533838360405161151c939291906127df565b60405180910390a15b5050565b611531611f65565b6040518060600160405280600081526020016000815260200160015481525090508060026000600560009054906101000a900473ffffffffffffffffffffffffffffffffffffffff1673ffffffffffffffffffffffffffffffffffffffff1673ffffffffffffffffffffffffffffffffffffffff1681526020019081526020016000206000820151816001015560208201518160020155604082015181600301559050507f9b98d01066211011e417c389a2c0f818bc599c8cad6ce7fdf42727e84eea7553600560009054906101000a900473ffffffffffffffffffffffffffffffffffffffff1660405161162691906127c4565b60405180910390a150565b60088060010154905081565b6000806000905060016008600101540390505b6000811061173757611660611dfc565b600860000160008381526020019081526020016000206040518060a00160405290816000820160009054906101000a900473ffffffffffffffffffffffffffffffffffffffff1673ffffffffffffffffffffffffffffffffffffffff1673ffffffffffffffffffffffffffffffffffffffff1681526020016001820154815260200160028201548152602001600382015481526020016004820160009054906101000a900460ff16151515158152505090508360600151816060015111156117285750611737565b50808060019003915050611650565b826008600001600083815260200190815260200160002060008201518160000160006101000a81548173ffffffffffffffffffffffffffffffffffffffff021916908373ffffffffffffffffffffffffffffffffffffffff16021790555060208201518160010155604082015181600201556060820151816003015560808201518160040160006101000a81548160ff0219169083151502179055509050506008600101600081548092919060010191905055508260200151915050919050565b6060806000600a60010154905060008114158061183557508360600151600a60000160006001840381526020019081526020016000206003015411155b156119e45760006001820390505b600081106119e2576000600a6000016000838152602001908152602001600020905085606001518160030154111561187b57506119e2565b856040015181600201541061194757611892611f3d565b60405180608001604052808860200151815260200183600101548152602001886040015181526020018360030154815250905080856001875103815181106118d657fe5b60200260200101819052508660400151826002016000828254039250508190555060008260020154141561190e5761190d83611d44565b5b8160000160009054906101000a900473ffffffffffffffffffffffffffffffffffffffff168760400151505084955050505050506119f4565b8560400151816002015410156119d25761195f611f3d565b60405180608001604052808860200151815260200183600101548152602001886040015181526020018360030154815250905080856001875103815181106119a357fe5b602002602001018190525081600201548760400181815103915081815250506119cb83611d44565b50506119d4565b505b808060019003915050611843565b505b6119ed846119f9565b5081925050505b919050565b600080600090506001600a600101540390505b60008110611af357611a1c611dfc565b600a60000160008381526020019081526020016000206040518060a00160405290816000820160009054906101000a900473ffffffffffffffffffffffffffffffffffffffff1673ffffffffffffffffffffffffffffffffffffffff1673ffffffffffffffffffffffffffffffffffffffff1681526020016001820154815260200160028201548152602001600382015481526020016004820160009054906101000a900460ff1615151515815250509050836060015181606001511015611ae45750611af3565b50808060019003915050611a0c565b82600a600001600083815260200190815260200160002060008201518160000160006101000a81548173ffffffffffffffffffffffffffffffffffffffff021916908373ffffffffffffffffffffffffffffffffffffffff16021790555060208201518160010155604082015181600201556060820151816003015560808201518160040160006101000a81548160ff021916908315150217905550905050600a600101600081548092919060010191905055508260200151915050919050565b60008160020154826003015410611bce5760019050611bd3565b600290505b60008090505b8260010154811015611c62576000836000016000838152602001908152602001600020905060006002811115611c0b57fe5b8160030160009054906101000a900460ff166002811115611c2857fe5b1415611c5457828160030160006101000a81548160ff02191690836002811115611c4e57fe5b02179055505b508080600101915050611bd9565b5060016002811115611c7057fe5b816002811115611c7c57fe5b1415611cbb5760008260020181905550611cba600560009054906101000a900473ffffffffffffffffffffffffffffffffffffffff166000546107d7565b5b5050565b60086000016000828152602001908152602001600020600080820160006101000a81549073ffffffffffffffffffffffffffffffffffffffff02191690556001820160009055600282016000905560038201600090556004820160006101000a81549060ff021916905550506008600101600081548092919060019003919050555050565b600a6000016000828152602001908152602001600020600080820160006101000a81549073ffffffffffffffffffffffffffffffffffffffff02191690556001820160009055600282016000905560038201600090556004820160006101000a81549060ff02191690555050600a600101600081548092919060019003919050555050565b604051806080016040528060608152602001600081526020016000815260200160006002811115611df657fe5b81525090565b6040518060a00160405280600073ffffffffffffffffffffffffffffffffffffffff1681526020016000815260200160008152602001600081526020016000151581525090565b604051806080016040528060608152602001600081526020016000815260200160006002811115611e7057fe5b81525090565b828054600181600116156101000203166002900490600052602060002090601f016020900481019282601f10611eb757805160ff1916838001178555611ee5565b82800160010185558215611ee5579182015b82811115611ee4578251825591602001919060010190611ec9565b5b509050611ef29190611f86565b5090565b6040518060a00160405280600073ffffffffffffffffffffffffffffffffffffffff1681526020016000815260200160008152602001600081526020016000151581525090565b6040518060800160405280600081526020016000815260200160008152602001600081525090565b60405180606001604052806000815260200160008152602001600081525090565b611fa891905b80821115611fa4576000816000905550600101611f8c565b5090565b90565b600081359050611fba81612bdc565b92915050565b600081359050611fcf81612bf3565b92915050565b600082601f830112611fe657600080fd5b8135611ff9611ff4826129cb565b61299e565b9150808252602083016020830185838301111561201557600080fd5b612020838284612b72565b50505092915050565b600060a0828403121561203b57600080fd5b61204560a061299e565b9050600061205584828501611fab565b6000830152506020612069848285016120b1565b602083015250604061207d848285016120b1565b6040830152506060612091848285016120b1565b60608301525060806120a584828501611fc0565b60808301525092915050565b6000813590506120c081612c0a565b92915050565b6000602082840312156120d857600080fd5b60006120e684828501611fab565b91505092915050565b6000806040838503121561210257600080fd5b600061211085828601611fab565b9250506020612121858286016120b1565b9150509250929050565b60008060006060848603121561214057600080fd5b600084013567ffffffffffffffff81111561215a57600080fd5b61216686828701611fd5565b9350506020612177868287016120b1565b9250506040612188868287016120b1565b9150509250925092565b600060a082840312156121a457600080fd5b60006121b284828501612029565b91505092915050565b6000602082840312156121cd57600080fd5b60006121db848285016120b1565b91505092915050565b600080604083850312156121f757600080fd5b6000612205858286016120b1565b9250506020612216858286016120b1565b9150509250929050565b600061222c8383612654565b905092915050565b600061224083836126b7565b60a08301905092915050565b6000612258838361271f565b60808301905092915050565b61226d81612b2a565b82525050565b61227c81612acf565b82525050565b61228b81612acf565b82525050565b600061229c82612a27565b6122a68185612a7a565b9350836020820285016122b8856129f7565b8060005b858110156122f457848403895281516122d58582612220565b94506122e083612a53565b925060208a019950506001810190506122bc565b50829750879550505050505092915050565b600061231182612a32565b61231b8185612a8b565b935061232683612a07565b8060005b8381101561235757815161233e8882612234565b975061234983612a60565b92505060018101905061232a565b5085935050505092915050565b600061236f82612a3d565b6123798185612a9c565b935061238483612a17565b8060005b838110156123b557815161239c888261224c565b97506123a783612a6d565b925050600181019050612388565b5085935050505092915050565b6123cb81612ae1565b82525050565b6123da81612b3c565b82525050565b60006123eb82612a48565b6123f58185612aad565b9350612405818560208601612b81565b61240e81612bbe565b840191505092915050565b6000612426604183612abe565b91507f496e76616c6964206f7065726174696f6e2e20546865207573657220616c726560008301527f616479206861766520636c656172656420616c6c2074686569722071756f746560208301527f73000000000000000000000000000000000000000000000000000000000000006040830152606082019050919050565b60006124b2602583612abe565b91507f496e76616c6964207265717565737420666f72206e657720477265656e20437260008301527f65646974730000000000000000000000000000000000000000000000000000006020830152604082019050919050565b6000612518601583612abe565b91507f496e73756666696369656e742062616c616e63652e00000000000000000000006000830152602082019050919050565b6000612558602683612abe565b91507f54686520616d6f756e74206e65656420746f20626520612076616c696420717560008301527f616e7469747900000000000000000000000000000000000000000000000000006020830152604082019050919050565b60006125be600c83612abe565b91507f56616c756520746f206c6f7700000000000000000000000000000000000000006000830152602082019050919050565b6000608083016000830151848203600086015261260e82826123e0565b91505060208301516126236020860182612774565b5060408301516126366040860182612774565b50606083015161264960608601826123d1565b508091505092915050565b6000608083016000830151848203600086015261267182826123e0565b91505060208301516126866020860182612774565b5060408301516126996040860182612774565b5060608301516126ac60608601826123d1565b508091505092915050565b60a0820160008201516126cd6000850182612273565b5060208201516126e06020850182612774565b5060408201516126f36040850182612774565b5060608201516127066060850182612774565b50608082015161271960808501826123c2565b50505050565b6080820160008201516127356000850182612774565b5060208201516127486020850182612774565b50604082015161275b6040850182612774565b50606082015161276e6060850182612774565b50505050565b61277d81612b20565b82525050565b61278c81612b20565b82525050565b6127a361279e82612b20565b612bb4565b82525050565b60006127b58284612792565b60208201915081905092915050565b60006020820190506127d96000830184612282565b92915050565b60006060820190506127f46000830186612264565b6128016020830185612282565b61280e6040830184612783565b949350505050565b600060208201905081810360008301526128308184612291565b905092915050565b600060208201905081810360008301526128528184612306565b905092915050565b600060208201905081810360008301526128748184612364565b905092915050565b6000602082019050818103600083015261289581612419565b9050919050565b600060208201905081810360008301526128b5816124a5565b9050919050565b600060208201905081810360008301526128d58161250b565b9050919050565b600060208201905081810360008301526128f58161254b565b9050919050565b60006020820190508181036000830152612915816125b1565b9050919050565b6000602082019050818103600083015261293681846125f1565b905092915050565b60006020820190506129536000830184612783565b92915050565b600060808201905061296e6000830187612783565b61297b6020830186612783565b6129886040830185612783565b6129956060830184612783565b95945050505050565b6000604051905081810181811067ffffffffffffffff821117156129c157600080fd5b8060405250919050565b600067ffffffffffffffff8211156129e257600080fd5b601f19601f8301169050602081019050919050565b6000819050602082019050919050565b6000819050602082019050919050565b6000819050602082019050919050565b600081519050919050565b600081519050919050565b600081519050919050565b600081519050919050565b6000602082019050919050565b6000602082019050919050565b6000602082019050919050565b600082825260208201905092915050565b600082825260208201905092915050565b600082825260208201905092915050565b600082825260208201905092915050565b600082825260208201905092915050565b6000612ada82612b00565b9050919050565b60008115159050919050565b6000819050612afb82612bcf565b919050565b600073ffffffffffffffffffffffffffffffffffffffff82169050919050565b6000819050919050565b6000612b3582612b4e565b9050919050565b6000612b4782612aed565b9050919050565b6000612b5982612b60565b9050919050565b6000612b6b82612b00565b9050919050565b82818337600083830152505050565b60005b83811015612b9f578082015181840152602081019050612b84565b83811115612bae576000848401525b50505050565b6000819050919050565b6000601f19601f8301169050919050565b60038110612bd957fe5b50565b612be581612acf565b8114612bf057600080fd5b50565b612bfc81612ae1565b8114612c0757600080fd5b50565b612c1381612b20565b8114612c1e57600080fd5b5056fea365627a7a72315820ae6bfd1a3f4bda1cf573a51da2a24d9a10a224fa6276e90ec2bc7199e67494006c6578706572696d656e74616cf564736f6c634300050c0040",
  "source": "pragma solidity >=0.4.21 <0.6.0;\r\npragma experimental ABIEncoderV2;\r\n\r\ncontract Market  {\r\n\r\n    uint constant public INITIAL_SUPPLY = 10000000000;\r\n    uint public ACHIEVE_GOAL_REWARD = 1000;\r\n    uint public OFFICIAL_WASTE_GENERATION_QUOTA = 40;\r\n\r\n    enum CleanInitiativeState {Started, Won, Postponed}\r\n\r\n    // Definition of \r\n    struct CleanInitiative {\r\n        string title;\r\n        // The goal is measured in CGR\r\n        uint quotasReductionGoal;\r\n        // When the goal was created\r\n        uint timestamp;\r\n        // the current state of the initiative\r\n        CleanInitiativeState state;\r\n    }\r\n\r\n    // The info for a trader of quotas\r\n    struct WasteTrader {\r\n        // The list of the current initiatives\r\n        mapping (uint => CleanInitiative) initiatives;\r\n        uint initiativesCount;\r\n        uint currentGoal;\r\n        // Waste Generation Quotas\r\n        uint wasteGenerationQuotas;\r\n    }\r\n\r\n    // Details for each trader\r\n    mapping (address => WasteTrader) wasteTraders;\r\n\r\n    mapping (uint => Trade) allTrades;\r\n    uint tradesCount;\r\n\r\n    struct OrdersBook {\r\n        mapping (uint => Order) orders;\r\n        uint size;\r\n    }\r\n\r\n    struct Order {\r\n        address owner;\r\n        uint ID;\r\n        uint amount;\r\n        uint price;\r\n        bool isASell;\r\n    }\r\n\r\n    struct Trade {\r\n        uint takerOrderID;\r\n        uint makerOrderID;\r\n        uint amount;\r\n        uint price;\r\n    }\r\n\r\n    modifier restricted() {\r\n        if (msg.sender == owner) _;\r\n    }\r\n\r\n    address public owner;\r\n    uint public municipal_credit_price;\r\n\r\n    // All the balances (green credits)\r\n    mapping (address => uint) public balances;\r\n    OrdersBook public sellOrdersBook;\r\n    OrdersBook public buyOrdersBook;\r\n\r\n    // Events allow participants to react to specific\r\n    // contract changes you declare\r\n    event Sent(address from, address to, uint amount);\r\n    \r\n    /***** EVENTS ******/\r\n    event NewCleanInitiative (CleanInitiative newItem);\r\n    event WasteQuotaReduced (uint amount);\r\n    event WasteQuotaAssigned (uint amount);\r\n    event InitializedTrader (address trader);\r\n\r\n    constructor()\r\n        public\r\n    {\r\n        owner = msg.sender;\r\n        mint(msg.sender, INITIAL_SUPPLY);\r\n    }\r\n\r\n    // Sends an amount of newly created coins to an address\r\n    // Can only be called by the contract creator\r\n    function mint(address receiver, uint amount) public restricted {\r\n        require(msg.sender == owner, \"Invalid request for new Green Credits\");\r\n        require(amount < 1e60, \"Value to low\");\r\n        balances[receiver] += amount;\r\n    }\r\n\r\n    // Sends an amount of existing coins\r\n    // from any caller to an address\r\n    function send(address receiver, uint amount) public restricted {\r\n        require(amount <= balances[msg.sender], \"Insufficient balance.\");\r\n        balances[msg.sender] -= amount;\r\n        balances[receiver] += amount;\r\n        emit Sent(msg.sender, receiver, amount);\r\n    }\r\n\r\n    // Start a new trader with default assignations\r\n    function initializeTrader () public {\r\n        WasteTrader memory trader = WasteTrader(0, 0, OFFICIAL_WASTE_GENERATION_QUOTA);\r\n        // Store it\r\n        wasteTraders[owner] = trader;\r\n        emit InitializedTrader(owner);\r\n    }\r\n\r\n    /************************* Quotes management ***********************************************************/\r\n\r\n    /**\r\n     * Update the quantity of \r\n     */\r\n    function reduceWasteQuotes (uint amount) public returns (uint) {\r\n        WasteTrader storage trader = wasteTraders[owner];\r\n\r\n        require(amount > 0, 'The amount need to be a valid quantity');\r\n        require (trader.wasteGenerationQuotas > 0, 'Invalid operation. The user already have cleared all their quotes');\r\n\r\n        trader.wasteGenerationQuotas -= amount;\r\n        emit WasteQuotaReduced (amount);\r\n\r\n        return trader.wasteGenerationQuotas;\r\n    }\r\n\r\n    function setWasteQuotes (uint amount) public returns (uint) {\r\n\r\n        require(amount > 0, 'The amount need to be a valid quantity');\r\n\r\n        WasteTrader storage trader = wasteTraders[owner];\r\n        trader.wasteGenerationQuotas = amount;\r\n        emit WasteQuotaAssigned (amount);\r\n\r\n        return trader.wasteGenerationQuotas;\r\n    }\r\n\r\n\r\n    /************************* end of Quotes management ***********************************************************/\r\n\r\n\r\n    /*************************************   Clean Initiatives ****************************************** */\r\n\r\n    /**\r\n     */\r\n    function newCleanInitiative (string memory title, uint goal, uint creation) public returns (CleanInitiative memory) {\r\n\r\n        // Create a  new initiative\r\n        CleanInitiative memory newItem = CleanInitiative (title, goal, creation, CleanInitiativeState.Started);\r\n        WasteTrader storage traderInfo = wasteTraders[owner];\r\n\r\n        // Add the new item to the traders list of initiatives\r\n        if (traderInfo.initiativesCount == 0) {\r\n            traderInfo.initiatives[0] = newItem;\r\n            traderInfo.initiativesCount++;\r\n        } else {\r\n            traderInfo.initiatives[traderInfo.initiativesCount] = newItem;\r\n            traderInfo.initiativesCount++;\r\n        }\r\n        traderInfo.currentGoal += goal; // All the goals are added together as a single goal for the current evaluation period\r\n        emit NewCleanInitiative (newItem);\r\n        return newItem;\r\n    }\r\n\r\n    /**\r\n     * Returns the list of initiatives currently asociated to the current user\r\n     */\r\n    function getCleanInitiatives ()  public view returns (CleanInitiative[] memory) {\r\n        WasteTrader storage trader = wasteTraders[owner];\r\n\r\n        CleanInitiative[] memory result = new CleanInitiative[](trader.initiativesCount);\r\n        // Create a list in memory to return it back\r\n        for (uint i = 0; i < trader.initiativesCount; i++) {\r\n            result [i] = trader.initiatives[i];\r\n        }\r\n\r\n        return result;\r\n    }\r\n\r\n    function closeCleanInitiative (uint initiativeId) internal {\r\n        WasteTrader storage trader = wasteTraders[owner];\r\n\r\n        require(initiativeId < trader.initiativesCount, 'Invalid initiative id');\r\n        trader.initiatives [initiativeId].state = CleanInitiativeState.Won;\r\n    }\r\n\r\n    function postponeCleanInitiative (uint initiativeId) internal {\r\n        WasteTrader storage trader = wasteTraders[owner];\r\n\r\n        require(initiativeId < trader.initiativesCount, 'Invalid initiative id');\r\n        CleanInitiative storage initiative = trader.initiatives [initiativeId];\r\n        initiative.state = CleanInitiativeState.Postponed;\r\n    }\r\n\r\n    // Close the current evaluation period\r\n    function closeEvaluationPeriod () public {\r\n        WasteTrader storage trader = wasteTraders[owner];\r\n        // Process the initiatives\r\n        evaluatWasteQuotesGoal (trader);\r\n        // Re-assign the quota\r\n        trader.wasteGenerationQuotas = OFFICIAL_WASTE_GENERATION_QUOTA;\r\n    }\r\n\r\n    // Process al the initiatives to close an evaluation period\r\n    function evaluatWasteQuotesGoal (WasteTrader storage trader) internal {\r\n\r\n        // Traverse all the traders to count their initiatives and close all the started\r\n        CleanInitiativeState finalState;\r\n        if (trader.wasteGenerationQuotas >= trader.currentGoal) {\r\n            finalState = CleanInitiativeState.Won; // The goal has been achieved!\r\n        } else {\r\n            finalState = CleanInitiativeState.Postponed; // No, the initiatives need to be postponed\r\n        }\r\n        // Now change all the open initiatives to the value\r\n        for (uint i = 0; i < trader.initiativesCount; i++ ) {\r\n            CleanInitiative storage initiative = trader.initiatives[i];\r\n            if (initiative.state == CleanInitiativeState.Started) {\r\n                initiative.state = finalState;\r\n            }\r\n        }\r\n        // If the goal was achieved, then reset the counters, transfer some money\r\n        if (finalState == CleanInitiativeState.Won) {\r\n            // Reset the current goal to start again!\r\n            trader.currentGoal = 0;\r\n            mint (owner, ACHIEVE_GOAL_REWARD); // Send reward\r\n        }\r\n    }\r\n\r\n    /** ******************* end of Clean initiatives */\r\n\r\n\r\n    function getOrderBook () public view returns (Order[] memory) {\r\n        Order[] memory result = new Order[] (sellOrdersBook.size + buyOrdersBook.size);\r\n\r\n        uint i = 0;\r\n        uint limit = sellOrdersBook.size;\r\n        for (i = 0; i < limit; i++) {\r\n            result[i] = sellOrdersBook.orders[i];\r\n        }\r\n\r\n        limit += buyOrdersBook.size;\r\n        for (; i<limit; i++) {\r\n            result[i] = sellOrdersBook.orders[i];\r\n        }\r\n\r\n        return result;\r\n    }\r\n    /**\r\n     *  Add a buy order to the order book\r\n     */\r\n    function addBuyOrder (uint amount, uint price) public returns (uint) {\r\n\r\n        uint newID = uint(keccak256(abi.encodePacked(block.number)));\r\n        Order memory order = Order (msg.sender, newID, amount, price, false);\r\n        // A new order\r\n        return addBuyOrder(order);\r\n    }\r\n\r\n    function addBuyOrder (Order memory order) internal returns (uint){\r\n        // The buy orders should be sorted in ascending order so that the last element of the array has the highest price.\r\n        uint i = 0;\r\n        for (i = buyOrdersBook.size - 1; i >= 0; i--) {\r\n            Order memory buyOrder = buyOrdersBook.orders [i];\r\n            if (buyOrder.price < order.price) {\r\n                break;\r\n            }\r\n        }\r\n        buyOrdersBook.orders[i] = order;\r\n        buyOrdersBook.size++;\r\n\r\n        return order.ID;\r\n    }\r\n\r\n    /**\r\n     *  Add a buy order to the order book\r\n     */\r\n    function addSellOrder (uint amount, uint price) public returns (uint){\r\n        // Sell orders are sorted descendently so that the element with the highest index in the array has the lowest price\r\n        uint newID = uint(keccak256(abi.encodePacked(block.number)));\r\n        Order memory order = Order (msg.sender, newID, amount, price, true);\r\n\r\n        return addSellOrder (order);\r\n    }\r\n\r\n    function addSellOrder (Order memory order) internal returns (uint) {\r\n        uint i = 0;\r\n        for (i = sellOrdersBook.size - 1; i >= 0; i--) {\r\n            Order memory buyOrder = sellOrdersBook.orders [i];\r\n            if (buyOrder.price > order.price) {\r\n                break;\r\n            }\r\n        }\r\n        sellOrdersBook.orders[i] = order;\r\n        sellOrdersBook.size++;\r\n\r\n        return order.ID;\r\n    }\r\n\r\n    function removeBuyOrder (uint i) internal {\r\n        delete buyOrdersBook.orders[i];\r\n        buyOrdersBook.size--;\r\n    }\r\n\r\n    function removeSellOrder (uint i) internal {\r\n        delete sellOrdersBook.orders[i];\r\n        sellOrdersBook.size--;\r\n    }\r\n\r\n    function process (Order memory order) public returns (Trade[] memory){\r\n        Trade[] memory newTrades;\r\n\r\n        if (order.isASell) {\r\n            newTrades = processSell(order);\r\n        } else {\r\n            newTrades = processBuy(order);\r\n        }\r\n        // Store the list of newly created trades\r\n        uint newTradesIdx = 0;\r\n        for (uint i = tradesCount; i < tradesCount + newTrades.length; i++) {\r\n            allTrades[i] = newTrades[newTradesIdx];\r\n        }\r\n        // Update the count of trades!\r\n        tradesCount += newTrades.length;\r\n    }\r\n\r\n    /**\r\n     * Process a limit buy order\r\n     */\r\n    function processBuy (Order memory order) public returns (Trade[] memory) {\r\n\r\n        Trade[] memory trades;\r\n\r\n        uint n = sellOrdersBook.size;\r\n        // check if we have at least one matching order\r\n        if (n != 0 || sellOrdersBook.orders[n - 1].price <= order.price) {\r\n\r\n            for (uint i = n - 1; i >= 0; i--) {\r\n                Order storage sellOrder = sellOrdersBook.orders[i];\r\n                if (sellOrder.price > order.price) {\r\n                    break;\r\n                }\r\n                // fill the entire order\r\n                if (sellOrder.amount >= order.amount) {\r\n\r\n                    Trade memory newTrade = Trade (order.ID, sellOrder.ID, order.amount, sellOrder.price);\r\n                    trades[trades.length - 1] = newTrade;\r\n\r\n                    sellOrder.amount -= order.amount;\r\n                    if (sellOrder.amount == 0) {\r\n                        removeSellOrder (i);\r\n                    }\r\n\r\n                    return trades;\r\n                }\r\n                // fill a partial order and continue\r\n                if (sellOrder.amount < order.amount) {\r\n\r\n                    Trade memory newTrade = Trade (order.ID, sellOrder.ID, order.amount, sellOrder.price);\r\n                    trades[trades.length - 1] = newTrade;\r\n\r\n                    order.amount -= sellOrder.amount;\r\n                    removeSellOrder (i);\r\n                    continue;\r\n                }\r\n            }\r\n        }\r\n\r\n        // finally add the remaining order to the list\r\n        addBuyOrder (order);\r\n        return trades;\r\n    }\r\n\r\n    // Get a full inventory of all my assets and balance\r\n    function myBalance () public view returns (uint, uint, uint, uint) {\r\n        uint balance = address(this).balance;\r\n        WasteTrader storage trader = wasteTraders[owner];\r\n\r\n        return (balance, trader.initiativesCount, trader.currentGoal, trader.wasteGenerationQuotas);\r\n    }\r\n\r\n    /**\r\n     * Process a limit sell order\r\n     */\r\n    function processSell (Order memory order) internal returns (Trade[] memory) {\r\n\r\n        Trade[] memory trades;\r\n        // WasteTrader storage trader = wasteTraders[owner];\r\n\r\n        uint n = buyOrdersBook.size;\r\n        // check if we have at least one matching order\r\n        if (n != 0 || buyOrdersBook.orders[n - 1].price <= order.price) {\r\n            // traverse all orders that match\r\n            for (uint i = n - 1; i >= 0; i--) {\r\n                Order storage buyOrder = buyOrdersBook.orders[i];\r\n                if (buyOrder.price > order.price) {\r\n                    break;\r\n                }\r\n\r\n                // fill the whole order\r\n                if (buyOrder.amount >= order.amount) {\r\n\r\n                    Trade memory newTrade = Trade (order.ID, buyOrder.ID, order.amount, buyOrder.price);\r\n                    trades[trades.length - 1] = newTrade;\r\n\r\n                    buyOrder.amount -= order.amount;\r\n                    if (buyOrder.amount == 0) {\r\n                        removeBuyOrder (i);\r\n                    }\r\n\r\n                    (buyOrder.owner, order.amount);\r\n                    return trades;\r\n                }\r\n\r\n                // fill a partial order and continue\r\n                if (buyOrder.amount < order.amount) {\r\n\r\n                    Trade memory newTrade = Trade (order.ID, buyOrder.ID, order.amount, buyOrder.price);\r\n                    trades[trades.length - 1] = newTrade;\r\n\r\n                    order.amount -= buyOrder.amount;\r\n                    removeBuyOrder (i);\r\n                    continue;\r\n                }\r\n            }\r\n        }\r\n\r\n        // finally add the remaining order to the list\r\n        addBuyOrder (order);\r\n        return trades;\r\n    }\r\n\r\n}",
  "sourcePath": "F:/DevStorage/Code/AquarelleAI/Qlean/src/QleanMarketsUIApp/contracts/QleanMarket.sol",
  "compiler": {
    "name": "solc",
    "version": "0.5.12+commit.7709ece9.Emscripten.clang"
  },
  "schemaVersion": "3.0.19",
  "updatedAt": "2019-12-01T08:37:06.416Z",
  "networkType": "ethereum",
  "devdoc": {
    "methods": {}
  },
  "userdoc": {
    "methods": {
      "addBuyOrder(uint256,uint256)": {
        "notice": "Add a buy order to the order book"
      },
      "addSellOrder(uint256,uint256)": {
        "notice": "Add a buy order to the order book"
      },
      "getCleanInitiatives()": {
        "notice": "Returns the list of initiatives currently asociated to the current user"
      },
      "getOrderBook()": {
        "notice": "******************* end of Clean initiatives "
      },
      "processBuy((address,uint256,uint256,uint256,bool))": {
        "notice": "Process a limit buy order"
      },
      "reduceWasteQuotes(uint256)": {
        "notice": "Update the quantity of "
      }
    }
  }
}